{
  "_format": "hh-sol-artifact-1",
  "contractName": "TestContract",
  "sourceName": "contracts/TestContract.sol",
  "abi": [
    {
      "inputs": [
        {
          "internalType": "address",
          "name": "_tokenAddress",
          "type": "address"
        }
      ],
      "stateMutability": "nonpayable",
      "type": "constructor"
    },
    {
      "inputs": [
        {
          "internalType": "uint256",
          "name": "amount",
          "type": "uint256"
        }
      ],
      "name": "deposit",
      "outputs": [],
      "stateMutability": "nonpayable",
      "type": "function"
    },
    {
      "inputs": [
        {
          "internalType": "address",
          "name": "_address",
          "type": "address"
        }
      ],
      "name": "getUserBalance",
      "outputs": [
        {
          "internalType": "uint256",
          "name": "",
          "type": "uint256"
        }
      ],
      "stateMutability": "view",
      "type": "function"
    },
    {
      "inputs": [
        {
          "internalType": "uint256",
          "name": "amount",
          "type": "uint256"
        }
      ],
      "name": "withdraw",
      "outputs": [],
      "stateMutability": "nonpayable",
      "type": "function"
    }
  ],
  "bytecode": "0x608060405234801561001057600080fd5b506040516109d43803806109d4833981810160405281019061003291906100db565b806000806101000a81548173ffffffffffffffffffffffffffffffffffffffff021916908373ffffffffffffffffffffffffffffffffffffffff16021790555050610108565b600080fd5b600073ffffffffffffffffffffffffffffffffffffffff82169050919050565b60006100a88261007d565b9050919050565b6100b88161009d565b81146100c357600080fd5b50565b6000815190506100d5816100af565b92915050565b6000602082840312156100f1576100f0610078565b5b60006100ff848285016100c6565b91505092915050565b6108bd806101176000396000f3fe608060405234801561001057600080fd5b50600436106100415760003560e01c80632e1a7d4d146100465780634773489214610062578063b6b55f2514610092575b600080fd5b610060600480360381019061005b9190610482565b6100ae565b005b61007c6004803603810190610077919061050d565b610228565b6040516100899190610549565b60405180910390f35b6100ac60048036038101906100a79190610482565b610271565b005b80600160003373ffffffffffffffffffffffffffffffffffffffff1673ffffffffffffffffffffffffffffffffffffffff168152602001908152602001600020541015610130576040517f08c379a00000000000000000000000000000000000000000000000000000000081526004016101279061060d565b60405180910390fd5b80600160003373ffffffffffffffffffffffffffffffffffffffff1673ffffffffffffffffffffffffffffffffffffffff168152602001908152602001600020600082825461017f919061065c565b9250508190555060008054906101000a900473ffffffffffffffffffffffffffffffffffffffff1673ffffffffffffffffffffffffffffffffffffffff1663a9059cbb33836040518363ffffffff1660e01b81526004016101e192919061069f565b6020604051808303816000875af1158015610200573d6000803e3d6000fd5b505050506040513d601f19601f820116820180604052508101906102249190610700565b5050565b6000600160008373ffffffffffffffffffffffffffffffffffffffff1673ffffffffffffffffffffffffffffffffffffffff168152602001908152602001600020549050919050565b8060008054906101000a900473ffffffffffffffffffffffffffffffffffffffff1673ffffffffffffffffffffffffffffffffffffffff166370a08231336040518263ffffffff1660e01b81526004016102cb919061072d565b602060405180830381865afa1580156102e8573d6000803e3d6000fd5b505050506040513d601f19601f8201168201806040525081019061030c919061075d565b101561034d576040517f08c379a0000000000000000000000000000000000000000000000000000000008152600401610344906107fc565b60405180910390fd5b80600160003373ffffffffffffffffffffffffffffffffffffffff1673ffffffffffffffffffffffffffffffffffffffff168152602001908152602001600020600082825461039c919061081c565b9250508190555060008054906101000a900473ffffffffffffffffffffffffffffffffffffffff1673ffffffffffffffffffffffffffffffffffffffff166323b872dd3330846040518463ffffffff1660e01b815260040161040093929190610850565b6020604051808303816000875af115801561041f573d6000803e3d6000fd5b505050506040513d601f19601f820116820180604052508101906104439190610700565b5050565b600080fd5b6000819050919050565b61045f8161044c565b811461046a57600080fd5b50565b60008135905061047c81610456565b92915050565b60006020828403121561049857610497610447565b5b60006104a68482850161046d565b91505092915050565b600073ffffffffffffffffffffffffffffffffffffffff82169050919050565b60006104da826104af565b9050919050565b6104ea816104cf565b81146104f557600080fd5b50565b600081359050610507816104e1565b92915050565b60006020828403121561052357610522610447565b5b6000610531848285016104f8565b91505092915050565b6105438161044c565b82525050565b600060208201905061055e600083018461053a565b92915050565b600082825260208201905092915050565b7f596f757220636f6e747261637420757365722062616c616e6365206d7573742060008201527f626520686967686572207468616e20796f757220776974686472617720616d6f60208201527f756e740000000000000000000000000000000000000000000000000000000000604082015250565b60006105f7604383610564565b915061060282610575565b606082019050919050565b60006020820190508181036000830152610626816105ea565b9050919050565b7f4e487b7100000000000000000000000000000000000000000000000000000000600052601160045260246000fd5b60006106678261044c565b91506106728361044c565b925082820390508181111561068a5761068961062d565b5b92915050565b610699816104cf565b82525050565b60006040820190506106b46000830185610690565b6106c1602083018461053a565b9392505050565b60008115159050919050565b6106dd816106c8565b81146106e857600080fd5b50565b6000815190506106fa816106d4565b92915050565b60006020828403121561071657610715610447565b5b6000610724848285016106eb565b91505092915050565b60006020820190506107426000830184610690565b92915050565b60008151905061075781610456565b92915050565b60006020828403121561077357610772610447565b5b600061078184828501610748565b91505092915050565b7f596f757220746f6b656e2062616c616e6365206d75737420626520677265617460008201527f6572207468616e20796f7572206465706f73697420616d6f756e740000000000602082015250565b60006107e6603b83610564565b91506107f18261078a565b604082019050919050565b60006020820190508181036000830152610815816107d9565b9050919050565b60006108278261044c565b91506108328361044c565b925082820190508082111561084a5761084961062d565b5b92915050565b60006060820190506108656000830186610690565b6108726020830185610690565b61087f604083018461053a565b94935050505056fea26469706673582212209448e0da3dfb89357d598fa7e5d09fcdddb15c9b3be09e9a9a4f11b81699909b64736f6c63430008110033",
  "linkReferences": {},
  "deployedLinkReferences": {}
}