{
  "_format": "hh-sol-artifact-1",
  "contractName": "AoniProject",
  "sourceName": "contracts/AoniProject.sol",
  "abi": [
    {
      "inputs": [
        {
          "internalType": "uint256",
          "name": "_fundingGoal",
          "type": "uint256"
        },
        {
          "internalType": "uint256",
          "name": "_deadline",
          "type": "uint256"
        },
        {
          "internalType": "address",
          "name": "_projectOwner",
          "type": "address"
        },
        {
          "internalType": "address",
          "name": "_fundingTokenAddress",
          "type": "address"
        }
      ],
      "stateMutability": "nonpayable",
      "type": "constructor"
    },
    {
      "inputs": [],
      "name": "cancel",
      "outputs": [],
      "stateMutability": "nonpayable",
      "type": "function"
    },
    {
      "inputs": [],
      "name": "checkDeadline",
      "outputs": [],
      "stateMutability": "nonpayable",
      "type": "function"
    },
    {
      "inputs": [],
      "name": "checkFundingGoal",
      "outputs": [],
      "stateMutability": "nonpayable",
      "type": "function"
    },
    {
      "inputs": [
        {
          "internalType": "uint256",
          "name": "amount",
          "type": "uint256"
        }
      ],
      "name": "contribute",
      "outputs": [],
      "stateMutability": "nonpayable",
      "type": "function"
    },
    {
      "inputs": [],
      "name": "finish",
      "outputs": [],
      "stateMutability": "nonpayable",
      "type": "function"
    },
    {
      "inputs": [
        {
          "internalType": "address",
          "name": "from",
          "type": "address"
        }
      ],
      "name": "getContributionsFrom",
      "outputs": [
        {
          "internalType": "uint256",
          "name": "",
          "type": "uint256"
        }
      ],
      "stateMutability": "view",
      "type": "function"
    },
    {
      "inputs": [],
      "name": "getCurrentBalance",
      "outputs": [
        {
          "internalType": "uint256",
          "name": "",
          "type": "uint256"
        }
      ],
      "stateMutability": "view",
      "type": "function"
    },
    {
      "inputs": [],
      "name": "getDeadline",
      "outputs": [
        {
          "internalType": "uint256",
          "name": "",
          "type": "uint256"
        }
      ],
      "stateMutability": "view",
      "type": "function"
    },
    {
      "inputs": [],
      "name": "getDonationsAmount",
      "outputs": [
        {
          "internalType": "uint256",
          "name": "",
          "type": "uint256"
        }
      ],
      "stateMutability": "view",
      "type": "function"
    },
    {
      "inputs": [],
      "name": "getFundingGoal",
      "outputs": [
        {
          "internalType": "uint256",
          "name": "",
          "type": "uint256"
        }
      ],
      "stateMutability": "view",
      "type": "function"
    },
    {
      "inputs": [],
      "name": "getProjectOwner",
      "outputs": [
        {
          "internalType": "address",
          "name": "",
          "type": "address"
        }
      ],
      "stateMutability": "view",
      "type": "function"
    },
    {
      "inputs": [],
      "name": "getStatus",
      "outputs": [
        {
          "internalType": "string",
          "name": "",
          "type": "string"
        }
      ],
      "stateMutability": "view",
      "type": "function"
    }
  ],
  "bytecode": "0x60806040523480156200001157600080fd5b5060405162001258380380620012588339818101604052810190620000379190620001ac565b836000819055508260028190555081600360016101000a81548173ffffffffffffffffffffffffffffffffffffffff021916908373ffffffffffffffffffffffffffffffffffffffff16021790555060006001819055506000600360006101000a81548160ff02191690836002811115620000b757620000b66200021e565b5b021790555080600660006101000a81548173ffffffffffffffffffffffffffffffffffffffff021916908373ffffffffffffffffffffffffffffffffffffffff160217905550505050506200024d565b600080fd5b6000819050919050565b62000121816200010c565b81146200012d57600080fd5b50565b600081519050620001418162000116565b92915050565b600073ffffffffffffffffffffffffffffffffffffffff82169050919050565b6000620001748262000147565b9050919050565b620001868162000167565b81146200019257600080fd5b50565b600081519050620001a6816200017b565b92915050565b60008060008060808587031215620001c957620001c862000107565b5b6000620001d98782880162000130565b9450506020620001ec8782880162000130565b9350506040620001ff8782880162000195565b9250506060620002128782880162000195565b91505092959194509250565b7f4e487b7100000000000000000000000000000000000000000000000000000000600052602160045260246000fd5b610ffb806200025d6000396000f3fe608060405234801561001057600080fd5b50600436106100b45760003560e01c8063b3df27f411610071578063b3df27f41461016b578063b85090f314610175578063c1cbbca714610193578063d56b2889146101af578063e6d68595146101b9578063ea8a1af0146101d7576100b4565b806319ce8c12146100b957806343bf9936146100d75780634e69d560146100e15780635f8d96de146100ff578063a57497101461011d578063b33819e41461013b575b600080fd5b6100c16101e1565b6040516100ce9190610ad7565b60405180910390f35b6100df6101eb565b005b6100e9610204565b6040516100f69190610b82565b60405180910390f35b610107610383565b6040516101149190610ad7565b60405180910390f35b61012561038d565b6040516101329190610ad7565b60405180910390f35b61015560048036038101906101509190610c07565b610430565b6040516101629190610ad7565b60405180910390f35b610173610479565b005b61017d610499565b60405161018a9190610ad7565b60405180910390f35b6101ad60048036038101906101a89190610c60565b6104a2565b005b6101b76107bd565b005b6101c16107f2565b6040516101ce9190610c9c565b60405180910390f35b6101df61081c565b005b6000600154905090565b6101f3610383565b42106102025761020161081c565b5b565b60606001600281111561021a57610219610cb7565b5b600360009054906101000a900460ff16600281111561023c5761023b610cb7565b5b0361027e576040518060400160405280600981526020017f43414e43454c4c454400000000000000000000000000000000000000000000008152509050610380565b6000600281111561029257610291610cb7565b5b600360009054906101000a900460ff1660028111156102b4576102b3610cb7565b5b036102f6576040518060400160405280600681526020017f41435449564500000000000000000000000000000000000000000000000000008152509050610380565b60028081111561030957610308610cb7565b5b600360009054906101000a900460ff16600281111561032b5761032a610cb7565b5b0361036d576040518060400160405280600881526020017f46494e49534845440000000000000000000000000000000000000000000000008152509050610380565b6040518060200160405280600081525090505b90565b6000600254905090565b6000600660009054906101000a900473ffffffffffffffffffffffffffffffffffffffff1673ffffffffffffffffffffffffffffffffffffffff166370a08231306040518263ffffffff1660e01b81526004016103ea9190610c9c565b602060405180830381865afa158015610407573d6000803e3d6000fd5b505050506040513d601f19601f8201168201806040525081019061042b9190610cfb565b905090565b6000600460008373ffffffffffffffffffffffffffffffffffffffff1673ffffffffffffffffffffffffffffffffffffffff168152602001908152602001600020549050919050565b610481610499565b61048961038d565b10610497576104966107bd565b5b565b60008054905090565b600060028111156104b6576104b5610cb7565b5b600360009054906101000a900460ff1660028111156104d8576104d7610cb7565b5b14610518576040517f08c379a000000000000000000000000000000000000000000000000000000000815260040161050f90610d74565b60405180910390fd5b80600660009054906101000a900473ffffffffffffffffffffffffffffffffffffffff1673ffffffffffffffffffffffffffffffffffffffff166370a08231336040518263ffffffff1660e01b81526004016105749190610c9c565b602060405180830381865afa158015610591573d6000803e3d6000fd5b505050506040513d601f19601f820116820180604052508101906105b59190610cfb565b10156105f6576040517f08c379a00000000000000000000000000000000000000000000000000000000081526004016105ed90610e06565b60405180910390fd5b600660009054906101000a900473ffffffffffffffffffffffffffffffffffffffff1673ffffffffffffffffffffffffffffffffffffffff166323b872dd3330846040518463ffffffff1660e01b815260040161065593929190610e26565b6020604051808303816000875af1158015610674573d6000803e3d6000fd5b505050506040513d601f19601f820116820180604052508101906106989190610e95565b506000600460003373ffffffffffffffffffffffffffffffffffffffff1673ffffffffffffffffffffffffffffffffffffffff1681526020019081526020016000205403610744576005339080600181540180825580915050600190039060005260206000200160009091909190916101000a81548173ffffffffffffffffffffffffffffffffffffffff021916908373ffffffffffffffffffffffffffffffffffffffff1602179055505b80600460003373ffffffffffffffffffffffffffffffffffffffff1673ffffffffffffffffffffffffffffffffffffffff16815260200190815260200160002060008282546107939190610ef1565b92505081905550600160008154809291906107ad90610f25565b91905055506107ba610479565b50565b6107c5610851565b6002600360006101000a81548160ff021916908360028111156107eb576107ea610cb7565b5b0217905550565b6000600360019054906101000a900473ffffffffffffffffffffffffffffffffffffffff16905090565b61082461091d565b6001600360006101000a81548160ff0219169083600281111561084a57610849610cb7565b5b0217905550565b600660009054906101000a900473ffffffffffffffffffffffffffffffffffffffff1673ffffffffffffffffffffffffffffffffffffffff1663a9059cbb600360019054906101000a900473ffffffffffffffffffffffffffffffffffffffff166108ba61038d565b6040518363ffffffff1660e01b81526004016108d7929190610f6d565b6020604051808303816000875af11580156108f6573d6000803e3d6000fd5b505050506040513d601f19601f8201168201806040525081019061091a9190610e95565b50565b60005b60058054905081101561098d5760006005828154811061094357610942610f96565b5b9060005260206000200160009054906101000a900473ffffffffffffffffffffffffffffffffffffffff16905061097981610990565b50808061098590610f25565b915050610920565b50565b6000600460008373ffffffffffffffffffffffffffffffffffffffff1673ffffffffffffffffffffffffffffffffffffffff168152602001908152602001600020549050600660009054906101000a900473ffffffffffffffffffffffffffffffffffffffff1673ffffffffffffffffffffffffffffffffffffffff1663a9059cbb83836040518363ffffffff1660e01b8152600401610a31929190610f6d565b6020604051808303816000875af1158015610a50573d6000803e3d6000fd5b505050506040513d601f19601f82011682018060405250810190610a749190610e95565b506000600460008473ffffffffffffffffffffffffffffffffffffffff1673ffffffffffffffffffffffffffffffffffffffff168152602001908152602001600020819055505050565b6000819050919050565b610ad181610abe565b82525050565b6000602082019050610aec6000830184610ac8565b92915050565b600081519050919050565b600082825260208201905092915050565b60005b83811015610b2c578082015181840152602081019050610b11565b60008484015250505050565b6000601f19601f8301169050919050565b6000610b5482610af2565b610b5e8185610afd565b9350610b6e818560208601610b0e565b610b7781610b38565b840191505092915050565b60006020820190508181036000830152610b9c8184610b49565b905092915050565b600080fd5b600073ffffffffffffffffffffffffffffffffffffffff82169050919050565b6000610bd482610ba9565b9050919050565b610be481610bc9565b8114610bef57600080fd5b50565b600081359050610c0181610bdb565b92915050565b600060208284031215610c1d57610c1c610ba4565b5b6000610c2b84828501610bf2565b91505092915050565b610c3d81610abe565b8114610c4857600080fd5b50565b600081359050610c5a81610c34565b92915050565b600060208284031215610c7657610c75610ba4565b5b6000610c8484828501610c4b565b91505092915050565b610c9681610bc9565b82525050565b6000602082019050610cb16000830184610c8d565b92915050565b7f4e487b7100000000000000000000000000000000000000000000000000000000600052602160045260246000fd5b600081519050610cf581610c34565b92915050565b600060208284031215610d1157610d10610ba4565b5b6000610d1f84828501610ce6565b91505092915050565b7f5468652070726f6a656374206973206e6f206c6f6e6765722041637469766500600082015250565b6000610d5e601f83610afd565b9150610d6982610d28565b602082019050919050565b60006020820190508181036000830152610d8d81610d51565b9050919050565b7f596f757220746f6b656e2062616c616e6365206d75737420626520677265617460008201527f6572207468616e20796f7572206465706f73697420616d6f756e740000000000602082015250565b6000610df0603b83610afd565b9150610dfb82610d94565b604082019050919050565b60006020820190508181036000830152610e1f81610de3565b9050919050565b6000606082019050610e3b6000830186610c8d565b610e486020830185610c8d565b610e556040830184610ac8565b949350505050565b60008115159050919050565b610e7281610e5d565b8114610e7d57600080fd5b50565b600081519050610e8f81610e69565b92915050565b600060208284031215610eab57610eaa610ba4565b5b6000610eb984828501610e80565b91505092915050565b7f4e487b7100000000000000000000000000000000000000000000000000000000600052601160045260246000fd5b6000610efc82610abe565b9150610f0783610abe565b9250828201905080821115610f1f57610f1e610ec2565b5b92915050565b6000610f3082610abe565b91507fffffffffffffffffffffffffffffffffffffffffffffffffffffffffffffffff8203610f6257610f61610ec2565b5b600182019050919050565b6000604082019050610f826000830185610c8d565b610f8f6020830184610ac8565b9392505050565b7f4e487b7100000000000000000000000000000000000000000000000000000000600052603260045260246000fdfea2646970667358221220fbdaeaf89265d90f0c2e0b1445c5a9475ef19d112502f6b64e3cfe6810dffaf564736f6c63430008110033",
  "linkReferences": {},
  "deployedLinkReferences": {}
}