{
  "_format": "hh-sol-artifact-1",
  "contractName": "AoniProject",
  "sourceName": "contracts/AoniProject.sol",
  "abi": [
    {
      "inputs": [
        {
          "internalType": "uint256",
          "name": "_fundingGoal",
          "type": "uint256"
        },
        {
          "internalType": "uint256",
          "name": "_deadline",
          "type": "uint256"
        },
        {
          "internalType": "address",
          "name": "_projectOwner",
          "type": "address"
        },
        {
          "internalType": "address",
          "name": "_fundingTokenAddress",
          "type": "address"
        }
      ],
      "stateMutability": "nonpayable",
      "type": "constructor"
    },
    {
      "inputs": [],
      "name": "cancel",
      "outputs": [],
      "stateMutability": "nonpayable",
      "type": "function"
    },
    {
      "inputs": [],
      "name": "checkDeadline",
      "outputs": [],
      "stateMutability": "nonpayable",
      "type": "function"
    },
    {
      "inputs": [],
      "name": "checkFundingGoal",
      "outputs": [],
      "stateMutability": "nonpayable",
      "type": "function"
    },
    {
      "inputs": [
        {
          "internalType": "uint256",
          "name": "amount",
          "type": "uint256"
        }
      ],
      "name": "contribute",
      "outputs": [],
      "stateMutability": "nonpayable",
      "type": "function"
    },
    {
      "inputs": [],
      "name": "finish",
      "outputs": [],
      "stateMutability": "nonpayable",
      "type": "function"
    },
    {
      "inputs": [
        {
          "internalType": "address",
          "name": "from",
          "type": "address"
        }
      ],
      "name": "getContributionsFrom",
      "outputs": [
        {
          "internalType": "uint256",
          "name": "",
          "type": "uint256"
        }
      ],
      "stateMutability": "view",
      "type": "function"
    },
    {
      "inputs": [],
      "name": "getCurrentBalance",
      "outputs": [
        {
          "internalType": "uint256",
          "name": "",
          "type": "uint256"
        }
      ],
      "stateMutability": "view",
      "type": "function"
    },
    {
      "inputs": [],
      "name": "getDeadline",
      "outputs": [
        {
          "internalType": "uint256",
          "name": "",
          "type": "uint256"
        }
      ],
      "stateMutability": "view",
      "type": "function"
    },
    {
      "inputs": [],
      "name": "getDetails",
      "outputs": [
        {
          "components": [
            {
              "internalType": "uint256",
              "name": "fundingGoal",
              "type": "uint256"
            },
            {
              "internalType": "uint256",
              "name": "currentBalance",
              "type": "uint256"
            },
            {
              "internalType": "uint256",
              "name": "deadline",
              "type": "uint256"
            },
            {
              "internalType": "address",
              "name": "projectOwner",
              "type": "address"
            },
            {
              "internalType": "uint256",
              "name": "donationsAmount",
              "type": "uint256"
            },
            {
              "internalType": "string",
              "name": "status",
              "type": "string"
            },
            {
              "internalType": "address",
              "name": "fundingToken",
              "type": "address"
            }
          ],
          "internalType": "struct AoniProject.Details",
          "name": "",
          "type": "tuple"
        }
      ],
      "stateMutability": "view",
      "type": "function"
    },
    {
      "inputs": [],
      "name": "getDonationsAmount",
      "outputs": [
        {
          "internalType": "uint256",
          "name": "",
          "type": "uint256"
        }
      ],
      "stateMutability": "view",
      "type": "function"
    },
    {
      "inputs": [],
      "name": "getFundingGoal",
      "outputs": [
        {
          "internalType": "uint256",
          "name": "",
          "type": "uint256"
        }
      ],
      "stateMutability": "view",
      "type": "function"
    },
    {
      "inputs": [],
      "name": "getFundingToken",
      "outputs": [
        {
          "internalType": "address",
          "name": "",
          "type": "address"
        }
      ],
      "stateMutability": "view",
      "type": "function"
    },
    {
      "inputs": [],
      "name": "getProjectOwner",
      "outputs": [
        {
          "internalType": "address",
          "name": "",
          "type": "address"
        }
      ],
      "stateMutability": "view",
      "type": "function"
    },
    {
      "inputs": [],
      "name": "getStatus",
      "outputs": [
        {
          "internalType": "string",
          "name": "",
          "type": "string"
        }
      ],
      "stateMutability": "view",
      "type": "function"
    }
  ],
  "bytecode": "0x60806040523480156200001157600080fd5b5060405162001526380380620015268339818101604052810190620000379190620001ac565b836000819055508260028190555081600360016101000a81548173ffffffffffffffffffffffffffffffffffffffff021916908373ffffffffffffffffffffffffffffffffffffffff16021790555060006001819055506000600360006101000a81548160ff02191690836002811115620000b757620000b66200021e565b5b021790555080600660006101000a81548173ffffffffffffffffffffffffffffffffffffffff021916908373ffffffffffffffffffffffffffffffffffffffff160217905550505050506200024d565b600080fd5b6000819050919050565b62000121816200010c565b81146200012d57600080fd5b50565b600081519050620001418162000116565b92915050565b600073ffffffffffffffffffffffffffffffffffffffff82169050919050565b6000620001748262000147565b9050919050565b620001868162000167565b81146200019257600080fd5b50565b600081519050620001a6816200017b565b92915050565b60008060008060808587031215620001c957620001c862000107565b5b6000620001d98782880162000130565b9450506020620001ec8782880162000130565b9350506040620001ff8782880162000195565b9250506060620002128782880162000195565b91505092959194509250565b7f4e487b7100000000000000000000000000000000000000000000000000000000600052602160045260246000fd5b6112c9806200025d6000396000f3fe608060405234801561001057600080fd5b50600436106100ea5760003560e01c8063b3df27f41161008c578063d56b288911610066578063d56b288914610203578063e6d685951461020d578063ea8a1af01461022b578063fbbf93a014610235576100ea565b8063b3df27f4146101bf578063b85090f3146101c9578063c1cbbca7146101e7576100ea565b80635f8d96de116100c85780635f8d96de1461013557806396c8370c14610153578063a574971014610171578063b33819e41461018f576100ea565b806319ce8c12146100ef57806343bf99361461010d5780634e69d56014610117575b600080fd5b6100f7610253565b6040516101049190610c7f565b60405180910390f35b61011561025d565b005b61011f610276565b60405161012c9190610d2a565b60405180910390f35b61013d6103f5565b60405161014a9190610c7f565b60405180910390f35b61015b6103ff565b6040516101689190610d8d565b60405180910390f35b610179610429565b6040516101869190610c7f565b60405180910390f35b6101a960048036038101906101a49190610dd9565b6104cc565b6040516101b69190610c7f565b60405180910390f35b6101c7610515565b005b6101d1610535565b6040516101de9190610c7f565b60405180910390f35b61020160048036038101906101fc9190610e32565b61053e565b005b61020b610859565b005b61021561088e565b6040516102229190610d8d565b60405180910390f35b6102336108b8565b005b61023d6108ed565b60405161024a9190610f63565b60405180910390f35b6000600154905090565b6102656103f5565b4210610274576102736108b8565b5b565b60606001600281111561028c5761028b610f85565b5b600360009054906101000a900460ff1660028111156102ae576102ad610f85565b5b036102f0576040518060400160405280600981526020017f43414e43454c4c4544000000000000000000000000000000000000000000000081525090506103f2565b6000600281111561030457610303610f85565b5b600360009054906101000a900460ff16600281111561032657610325610f85565b5b03610368576040518060400160405280600681526020017f414354495645000000000000000000000000000000000000000000000000000081525090506103f2565b60028081111561037b5761037a610f85565b5b600360009054906101000a900460ff16600281111561039d5761039c610f85565b5b036103df576040518060400160405280600881526020017f46494e495348454400000000000000000000000000000000000000000000000081525090506103f2565b6040518060200160405280600081525090505b90565b6000600254905090565b6000600660009054906101000a900473ffffffffffffffffffffffffffffffffffffffff16905090565b6000600660009054906101000a900473ffffffffffffffffffffffffffffffffffffffff1673ffffffffffffffffffffffffffffffffffffffff166370a08231306040518263ffffffff1660e01b81526004016104869190610d8d565b602060405180830381865afa1580156104a3573d6000803e3d6000fd5b505050506040513d601f19601f820116820180604052508101906104c79190610fc9565b905090565b6000600460008373ffffffffffffffffffffffffffffffffffffffff1673ffffffffffffffffffffffffffffffffffffffff168152602001908152602001600020549050919050565b61051d610535565b610525610429565b1061053357610532610859565b5b565b60008054905090565b6000600281111561055257610551610f85565b5b600360009054906101000a900460ff16600281111561057457610573610f85565b5b146105b4576040517f08c379a00000000000000000000000000000000000000000000000000000000081526004016105ab90611042565b60405180910390fd5b80600660009054906101000a900473ffffffffffffffffffffffffffffffffffffffff1673ffffffffffffffffffffffffffffffffffffffff166370a08231336040518263ffffffff1660e01b81526004016106109190610d8d565b602060405180830381865afa15801561062d573d6000803e3d6000fd5b505050506040513d601f19601f820116820180604052508101906106519190610fc9565b1015610692576040517f08c379a0000000000000000000000000000000000000000000000000000000008152600401610689906110d4565b60405180910390fd5b600660009054906101000a900473ffffffffffffffffffffffffffffffffffffffff1673ffffffffffffffffffffffffffffffffffffffff166323b872dd3330846040518463ffffffff1660e01b81526004016106f1939291906110f4565b6020604051808303816000875af1158015610710573d6000803e3d6000fd5b505050506040513d601f19601f820116820180604052508101906107349190611163565b506000600460003373ffffffffffffffffffffffffffffffffffffffff1673ffffffffffffffffffffffffffffffffffffffff16815260200190815260200160002054036107e0576005339080600181540180825580915050600190039060005260206000200160009091909190916101000a81548173ffffffffffffffffffffffffffffffffffffffff021916908373ffffffffffffffffffffffffffffffffffffffff1602179055505b80600460003373ffffffffffffffffffffffffffffffffffffffff1673ffffffffffffffffffffffffffffffffffffffff168152602001908152602001600020600082825461082f91906111bf565b9250508190555060016000815480929190610849906111f3565b9190505550610856610515565b50565b610861610990565b6002600360006101000a81548160ff0219169083600281111561088757610886610f85565b5b0217905550565b6000600360019054906101000a900473ffffffffffffffffffffffffffffffffffffffff16905090565b6108c0610a5c565b6001600360006101000a81548160ff021916908360028111156108e6576108e5610f85565b5b0217905550565b6108f5610bfd565b60006040518060e0016040528061090a610535565b8152602001610917610429565b81526020016109246103f5565b815260200161093161088e565b73ffffffffffffffffffffffffffffffffffffffff168152602001610954610253565b8152602001610961610276565b815260200161096e6103ff565b73ffffffffffffffffffffffffffffffffffffffff1681525090508091505090565b600660009054906101000a900473ffffffffffffffffffffffffffffffffffffffff1673ffffffffffffffffffffffffffffffffffffffff1663a9059cbb600360019054906101000a900473ffffffffffffffffffffffffffffffffffffffff166109f9610429565b6040518363ffffffff1660e01b8152600401610a1692919061123b565b6020604051808303816000875af1158015610a35573d6000803e3d6000fd5b505050506040513d601f19601f82011682018060405250810190610a599190611163565b50565b60005b600580549050811015610acc57600060058281548110610a8257610a81611264565b5b9060005260206000200160009054906101000a900473ffffffffffffffffffffffffffffffffffffffff169050610ab881610acf565b508080610ac4906111f3565b915050610a5f565b50565b6000600460008373ffffffffffffffffffffffffffffffffffffffff1673ffffffffffffffffffffffffffffffffffffffff168152602001908152602001600020549050600660009054906101000a900473ffffffffffffffffffffffffffffffffffffffff1673ffffffffffffffffffffffffffffffffffffffff1663a9059cbb83836040518363ffffffff1660e01b8152600401610b7092919061123b565b6020604051808303816000875af1158015610b8f573d6000803e3d6000fd5b505050506040513d601f19601f82011682018060405250810190610bb39190611163565b506000600460008473ffffffffffffffffffffffffffffffffffffffff1673ffffffffffffffffffffffffffffffffffffffff168152602001908152602001600020819055505050565b6040518060e00160405280600081526020016000815260200160008152602001600073ffffffffffffffffffffffffffffffffffffffff1681526020016000815260200160608152602001600073ffffffffffffffffffffffffffffffffffffffff1681525090565b6000819050919050565b610c7981610c66565b82525050565b6000602082019050610c946000830184610c70565b92915050565b600081519050919050565b600082825260208201905092915050565b60005b83811015610cd4578082015181840152602081019050610cb9565b60008484015250505050565b6000601f19601f8301169050919050565b6000610cfc82610c9a565b610d068185610ca5565b9350610d16818560208601610cb6565b610d1f81610ce0565b840191505092915050565b60006020820190508181036000830152610d448184610cf1565b905092915050565b600073ffffffffffffffffffffffffffffffffffffffff82169050919050565b6000610d7782610d4c565b9050919050565b610d8781610d6c565b82525050565b6000602082019050610da26000830184610d7e565b92915050565b600080fd5b610db681610d6c565b8114610dc157600080fd5b50565b600081359050610dd381610dad565b92915050565b600060208284031215610def57610dee610da8565b5b6000610dfd84828501610dc4565b91505092915050565b610e0f81610c66565b8114610e1a57600080fd5b50565b600081359050610e2c81610e06565b92915050565b600060208284031215610e4857610e47610da8565b5b6000610e5684828501610e1d565b91505092915050565b610e6881610c66565b82525050565b610e7781610d6c565b82525050565b600082825260208201905092915050565b6000610e9982610c9a565b610ea38185610e7d565b9350610eb3818560208601610cb6565b610ebc81610ce0565b840191505092915050565b600060e083016000830151610edf6000860182610e5f565b506020830151610ef26020860182610e5f565b506040830151610f056040860182610e5f565b506060830151610f186060860182610e6e565b506080830151610f2b6080860182610e5f565b5060a083015184820360a0860152610f438282610e8e565b91505060c0830151610f5860c0860182610e6e565b508091505092915050565b60006020820190508181036000830152610f7d8184610ec7565b905092915050565b7f4e487b7100000000000000000000000000000000000000000000000000000000600052602160045260246000fd5b600081519050610fc381610e06565b92915050565b600060208284031215610fdf57610fde610da8565b5b6000610fed84828501610fb4565b91505092915050565b7f5468652070726f6a656374206973206e6f206c6f6e6765722041637469766500600082015250565b600061102c601f83610ca5565b915061103782610ff6565b602082019050919050565b6000602082019050818103600083015261105b8161101f565b9050919050565b7f596f757220746f6b656e2062616c616e6365206d75737420626520677265617460008201527f6572207468616e20796f7572206465706f73697420616d6f756e740000000000602082015250565b60006110be603b83610ca5565b91506110c982611062565b604082019050919050565b600060208201905081810360008301526110ed816110b1565b9050919050565b60006060820190506111096000830186610d7e565b6111166020830185610d7e565b6111236040830184610c70565b949350505050565b60008115159050919050565b6111408161112b565b811461114b57600080fd5b50565b60008151905061115d81611137565b92915050565b60006020828403121561117957611178610da8565b5b60006111878482850161114e565b91505092915050565b7f4e487b7100000000000000000000000000000000000000000000000000000000600052601160045260246000fd5b60006111ca82610c66565b91506111d583610c66565b92508282019050808211156111ed576111ec611190565b5b92915050565b60006111fe82610c66565b91507fffffffffffffffffffffffffffffffffffffffffffffffffffffffffffffffff82036112305761122f611190565b5b600182019050919050565b60006040820190506112506000830185610d7e565b61125d6020830184610c70565b9392505050565b7f4e487b7100000000000000000000000000000000000000000000000000000000600052603260045260246000fdfea264697066735822122066aa0c0f2db305d0b62b4023599ccd7b37b6fe4c9e0509792d782e6fc4d9537f64736f6c63430008110033",
  "linkReferences": {},
  "deployedLinkReferences": {}
}