{
  "_format": "hh-sol-artifact-1",
  "contractName": "AoniProject",
  "sourceName": "contracts/AoniProject.sol",
  "abi": [
    {
      "inputs": [
        {
          "internalType": "uint256",
          "name": "_fundingGoal",
          "type": "uint256"
        },
        {
          "internalType": "uint256",
          "name": "_deadline",
          "type": "uint256"
        },
        {
          "internalType": "address",
          "name": "_projectOwner",
          "type": "address"
        },
        {
          "internalType": "address",
          "name": "_fundingTokenAddress",
          "type": "address"
        }
      ],
      "stateMutability": "nonpayable",
      "type": "constructor"
    },
    {
      "inputs": [],
      "name": "cancel",
      "outputs": [],
      "stateMutability": "nonpayable",
      "type": "function"
    },
    {
      "inputs": [],
      "name": "checkDeadline",
      "outputs": [],
      "stateMutability": "nonpayable",
      "type": "function"
    },
    {
      "inputs": [],
      "name": "checkFundingGoal",
      "outputs": [],
      "stateMutability": "nonpayable",
      "type": "function"
    },
    {
      "inputs": [
        {
          "internalType": "uint256",
          "name": "amount",
          "type": "uint256"
        }
      ],
      "name": "contribute",
      "outputs": [],
      "stateMutability": "nonpayable",
      "type": "function"
    },
    {
      "inputs": [],
      "name": "finish",
      "outputs": [],
      "stateMutability": "nonpayable",
      "type": "function"
    },
    {
      "inputs": [],
      "name": "getDetails",
      "outputs": [
        {
          "components": [
            {
              "internalType": "uint256",
              "name": "fundingGoal",
              "type": "uint256"
            },
            {
              "internalType": "uint256",
              "name": "currentBalance",
              "type": "uint256"
            },
            {
              "internalType": "uint256",
              "name": "totalContributions",
              "type": "uint256"
            },
            {
              "internalType": "uint256",
              "name": "deadline",
              "type": "uint256"
            },
            {
              "internalType": "address",
              "name": "projectOwner",
              "type": "address"
            },
            {
              "internalType": "uint256",
              "name": "donationsAmount",
              "type": "uint256"
            },
            {
              "internalType": "string",
              "name": "status",
              "type": "string"
            },
            {
              "internalType": "address",
              "name": "fundingToken",
              "type": "address"
            }
          ],
          "internalType": "struct AoniProject.Details",
          "name": "",
          "type": "tuple"
        }
      ],
      "stateMutability": "view",
      "type": "function"
    }
  ],
  "bytecode": "0x60806040523480156200001157600080fd5b506040516200136b3803806200136b8339818101604052810190620000379190620001ac565b836000819055508260028190555081600360016101000a81548173ffffffffffffffffffffffffffffffffffffffff021916908373ffffffffffffffffffffffffffffffffffffffff16021790555060006001819055506000600360006101000a81548160ff02191690836002811115620000b757620000b66200021e565b5b021790555080600660006101000a81548173ffffffffffffffffffffffffffffffffffffffff021916908373ffffffffffffffffffffffffffffffffffffffff160217905550505050506200024d565b600080fd5b6000819050919050565b62000121816200010c565b81146200012d57600080fd5b50565b600081519050620001418162000116565b92915050565b600073ffffffffffffffffffffffffffffffffffffffff82169050919050565b6000620001748262000147565b9050919050565b620001868162000167565b81146200019257600080fd5b50565b600081519050620001a6816200017b565b92915050565b60008060008060808587031215620001c957620001c862000107565b5b6000620001d98782880162000130565b9450506020620001ec8782880162000130565b9350506040620001ff8782880162000195565b9250506060620002128782880162000195565b91505092959194509250565b7f4e487b7100000000000000000000000000000000000000000000000000000000600052602160045260246000fd5b61110e806200025d6000396000f3fe608060405234801561001057600080fd5b50600436106100625760003560e01c806343bf993614610067578063b3df27f414610071578063c1cbbca71461007b578063d56b288914610097578063ea8a1af0146100a1578063fbbf93a0146100ab575b600080fd5b61006f6100c9565b005b6100796100e2565b005b61009560048036038101906100909190610ba1565b610102565b005b61009f61041d565b005b6100a9610452565b005b6100b3610487565b6040516100c09190610d5e565b60405180910390f35b6100d1610538565b42106100e0576100df610452565b5b565b6100ea610542565b6100f261054b565b10610100576100ff61041d565b5b565b6000600281111561011657610115610d80565b5b600360009054906101000a900460ff16600281111561013857610137610d80565b5b14610178576040517f08c379a000000000000000000000000000000000000000000000000000000000815260040161016f90610e0c565b60405180910390fd5b80600660009054906101000a900473ffffffffffffffffffffffffffffffffffffffff1673ffffffffffffffffffffffffffffffffffffffff166370a08231336040518263ffffffff1660e01b81526004016101d49190610e3b565b602060405180830381865afa1580156101f1573d6000803e3d6000fd5b505050506040513d601f19601f820116820180604052508101906102159190610e6b565b1015610256576040517f08c379a000000000000000000000000000000000000000000000000000000000815260040161024d90610f0a565b60405180910390fd5b600660009054906101000a900473ffffffffffffffffffffffffffffffffffffffff1673ffffffffffffffffffffffffffffffffffffffff166323b872dd3330846040518463ffffffff1660e01b81526004016102b593929190610f39565b6020604051808303816000875af11580156102d4573d6000803e3d6000fd5b505050506040513d601f19601f820116820180604052508101906102f89190610fa8565b506000600460003373ffffffffffffffffffffffffffffffffffffffff1673ffffffffffffffffffffffffffffffffffffffff16815260200190815260200160002054036103a4576005339080600181540180825580915050600190039060005260206000200160009091909190916101000a81548173ffffffffffffffffffffffffffffffffffffffff021916908373ffffffffffffffffffffffffffffffffffffffff1602179055505b80600460003373ffffffffffffffffffffffffffffffffffffffff1673ffffffffffffffffffffffffffffffffffffffff16815260200190815260200160002060008282546103f39190611004565b925050819055506001600081548092919061040d90611038565b919050555061041a6100e2565b50565b6104256105ee565b6002600360006101000a81548160ff0219169083600281111561044b5761044a610d80565b5b0217905550565b61045a6106ba565b6001600360006101000a81548160ff021916908360028111156104805761047f610d80565b5b0217905550565b61048f610af5565b60006040518061010001604052806104a5610542565b81526020016104b261054b565b81526020016104bf61072d565b81526020016104cc610538565b81526020016104d96107ea565b73ffffffffffffffffffffffffffffffffffffffff1681526020016104fc610814565b815260200161050961081e565b815260200161051661099d565b73ffffffffffffffffffffffffffffffffffffffff1681525090508091505090565b6000600254905090565b60008054905090565b6000600660009054906101000a900473ffffffffffffffffffffffffffffffffffffffff1673ffffffffffffffffffffffffffffffffffffffff166370a08231306040518263ffffffff1660e01b81526004016105a89190610e3b565b602060405180830381865afa1580156105c5573d6000803e3d6000fd5b505050506040513d601f19601f820116820180604052508101906105e99190610e6b565b905090565b600660009054906101000a900473ffffffffffffffffffffffffffffffffffffffff1673ffffffffffffffffffffffffffffffffffffffff1663a9059cbb600360019054906101000a900473ffffffffffffffffffffffffffffffffffffffff1661065761054b565b6040518363ffffffff1660e01b8152600401610674929190611080565b6020604051808303816000875af1158015610693573d6000803e3d6000fd5b505050506040513d601f19601f820116820180604052508101906106b79190610fa8565b50565b60005b60058054905081101561072a576000600582815481106106e0576106df6110a9565b5b9060005260206000200160009054906101000a900473ffffffffffffffffffffffffffffffffffffffff169050610716816109c7565b50808061072290611038565b9150506106bd565b50565b6000806000905060005b6005805490508110156107e257600460006005838154811061075c5761075b6110a9565b5b9060005260206000200160009054906101000a900473ffffffffffffffffffffffffffffffffffffffff1673ffffffffffffffffffffffffffffffffffffffff1673ffffffffffffffffffffffffffffffffffffffff16815260200190815260200160002054826107cd9190611004565b915080806107da90611038565b915050610737565b508091505090565b6000600360019054906101000a900473ffffffffffffffffffffffffffffffffffffffff16905090565b6000600154905090565b60606001600281111561083457610833610d80565b5b600360009054906101000a900460ff16600281111561085657610855610d80565b5b03610898576040518060400160405280600981526020017f43414e43454c4c45440000000000000000000000000000000000000000000000815250905061099a565b600060028111156108ac576108ab610d80565b5b600360009054906101000a900460ff1660028111156108ce576108cd610d80565b5b03610910576040518060400160405280600681526020017f4143544956450000000000000000000000000000000000000000000000000000815250905061099a565b60028081111561092357610922610d80565b5b600360009054906101000a900460ff16600281111561094557610944610d80565b5b03610987576040518060400160405280600881526020017f46494e4953484544000000000000000000000000000000000000000000000000815250905061099a565b6040518060200160405280600081525090505b90565b6000600660009054906101000a900473ffffffffffffffffffffffffffffffffffffffff16905090565b6000600460008373ffffffffffffffffffffffffffffffffffffffff1673ffffffffffffffffffffffffffffffffffffffff168152602001908152602001600020549050600660009054906101000a900473ffffffffffffffffffffffffffffffffffffffff1673ffffffffffffffffffffffffffffffffffffffff1663a9059cbb83836040518363ffffffff1660e01b8152600401610a68929190611080565b6020604051808303816000875af1158015610a87573d6000803e3d6000fd5b505050506040513d601f19601f82011682018060405250810190610aab9190610fa8565b506000600460008473ffffffffffffffffffffffffffffffffffffffff1673ffffffffffffffffffffffffffffffffffffffff168152602001908152602001600020819055505050565b60405180610100016040528060008152602001600081526020016000815260200160008152602001600073ffffffffffffffffffffffffffffffffffffffff1681526020016000815260200160608152602001600073ffffffffffffffffffffffffffffffffffffffff1681525090565b600080fd5b6000819050919050565b610b7e81610b6b565b8114610b8957600080fd5b50565b600081359050610b9b81610b75565b92915050565b600060208284031215610bb757610bb6610b66565b5b6000610bc584828501610b8c565b91505092915050565b610bd781610b6b565b82525050565b600073ffffffffffffffffffffffffffffffffffffffff82169050919050565b6000610c0882610bdd565b9050919050565b610c1881610bfd565b82525050565b600081519050919050565b600082825260208201905092915050565b60005b83811015610c58578082015181840152602081019050610c3d565b60008484015250505050565b6000601f19601f8301169050919050565b6000610c8082610c1e565b610c8a8185610c29565b9350610c9a818560208601610c3a565b610ca381610c64565b840191505092915050565b600061010083016000830151610cc76000860182610bce565b506020830151610cda6020860182610bce565b506040830151610ced6040860182610bce565b506060830151610d006060860182610bce565b506080830151610d136080860182610c0f565b5060a0830151610d2660a0860182610bce565b5060c083015184820360c0860152610d3e8282610c75565b91505060e0830151610d5360e0860182610c0f565b508091505092915050565b60006020820190508181036000830152610d788184610cae565b905092915050565b7f4e487b7100000000000000000000000000000000000000000000000000000000600052602160045260246000fd5b600082825260208201905092915050565b7f5468652070726f6a656374206973206e6f206c6f6e6765722041637469766500600082015250565b6000610df6601f83610daf565b9150610e0182610dc0565b602082019050919050565b60006020820190508181036000830152610e2581610de9565b9050919050565b610e3581610bfd565b82525050565b6000602082019050610e506000830184610e2c565b92915050565b600081519050610e6581610b75565b92915050565b600060208284031215610e8157610e80610b66565b5b6000610e8f84828501610e56565b91505092915050565b7f596f757220746f6b656e2062616c616e6365206d75737420626520677265617460008201527f6572207468616e20796f7572206465706f73697420616d6f756e740000000000602082015250565b6000610ef4603b83610daf565b9150610eff82610e98565b604082019050919050565b60006020820190508181036000830152610f2381610ee7565b9050919050565b610f3381610b6b565b82525050565b6000606082019050610f4e6000830186610e2c565b610f5b6020830185610e2c565b610f686040830184610f2a565b949350505050565b60008115159050919050565b610f8581610f70565b8114610f9057600080fd5b50565b600081519050610fa281610f7c565b92915050565b600060208284031215610fbe57610fbd610b66565b5b6000610fcc84828501610f93565b91505092915050565b7f4e487b7100000000000000000000000000000000000000000000000000000000600052601160045260246000fd5b600061100f82610b6b565b915061101a83610b6b565b925082820190508082111561103257611031610fd5565b5b92915050565b600061104382610b6b565b91507fffffffffffffffffffffffffffffffffffffffffffffffffffffffffffffffff820361107557611074610fd5565b5b600182019050919050565b60006040820190506110956000830185610e2c565b6110a26020830184610f2a565b9392505050565b7f4e487b7100000000000000000000000000000000000000000000000000000000600052603260045260246000fdfea264697066735822122022985e2005f00a736abfd972b8cc3a0a15b0fe3c99a1964500d0094b528fbdb964736f6c63430008110033",
  "linkReferences": {},
  "deployedLinkReferences": {}
}